:020000040800F2
:100000000000022041230008392200083F22000896
:10001000452200084B220008512200080000000081
:10002000000000000000000000000000572200084F
:1000300065220008000000007322000881220008E9
:1000400091230008912300089123000891230008C0
:1000500091230008912300089123000891230008B0
:1000600091230008912300089123000891230008A0
:100070009123000891230008912300089123000890
:100080009123000891230008912300089123000880
:100090009123000891230008912300089123000870
:1000A0009123000891230008912300089123000860
:1000B0008D22000891230008912300089123000855
:1000C0009123000891230008912300089123000840
:1000D0009123000891230008912300089123000830
:1000E0009123000891230008912300089123000820
:1000F0009123000891230008912300089123000810
:1001000091230008912300089123000891230008FF
:1001100091230008912300089123000891230008EF
:1001200091230008912300089123000891230008DF
:1001300091230008912300089123000891230008CF
:1001400091230008912300089123000891230008BF
:1001500091230008912300089123000891230008AF
:10016000912300089123000891230008912300089F
:10017000912300089123000891230008000000004B
:080180009123000891230008FF
:1001880010B5054C237833B9044B13B10448AFF3C9
:1001980000800123237010BD18000020000000001B
:1001A8004859000808B5034B1BB103490348AFF38E
:1001B800008008BD000000001C000020485900080D
:1001C80053B94AB9002908BF00281CBF4FF0FF31B6
:1001D8004FF0FF3000F06EB9ADF1080C6DE904CEB8
:1001E80000F006F8DDF804E0DDE9022304B070470A
:1001F8002DE9F047089D04468C46002B40F083808B
:100208008A42174647D9B2FA82F242B1C2F12000B7
:1002180024FA00F09140974040EA010C94404FEADC
:100228001748230CBCFBF8F61FFA87FE08FB16C11B
:1002380043EA014306FB0EF1994209D9FB1806F17E
:10024800FF3080F01981994240F21681023E3B440A
:100258005B1AA4B2B3FBF8F008FB103344EA03447A
:1002680000FB0EFEA64509D93C1900F1FF3380F0CA
:100278000581A64540F2028102383C4440EA064026
:10028800A4EB0E0400261DB1D4400023C5E90043A9
:100298003146BDE8F08702B9FFDEB2FA82F2002AE1
:1002A80050D1CB1B4FEA174E1FFA87F80126B3FB34
:1002B800FEFC210C0EFB1C3341EA034108FB0CF346
:1002C8008B4207D979180CF1FF3002D28B4200F229
:1002D800E9808446C91AA3B2B1FBFEF00EFB1011E7
:1002E80043EA014408FB00F8A04507D93C1900F18E
:1002F800FF3302D2A04500F2D9801846A4EB0804C7
:1003080040EA0C40BFE78B4209D9002D00F0B180CC
:100318000026C5E9000130463146BDE8F087B3FA4A
:1003280083F6002E4AD18B4202D3824200F2B88073
:10033800841A61EB030101208C46002DA8D0C5E981
:10034800004CA5E7C2F1200320FA03F6974001FA12
:1003580002F04FEA174ED9403043030CB1FBFEF6CA
:100368001FFA87F80EFB161143EA014306FB08F152
:10037800994204FA02F409D9FB1806F1FF3C80F00F
:100388008D80994240F28A80023E3B445B1A81B2DA
:10039800B3FBFEF00EFB103341EA034100FB08F308
:1003A8008B4207D9791800F1FF3C73D28B4271D97F
:1003B80002383944CB1A40EA064678E7C6F1200CE1
:1003C80003FA06F422FA0CF31C4320FA0CF701FA9C
:1003D80006F34FEA144E21FA0CF11F433B0CB1FB14
:1003E800FEF91FFA84F80EFB191143EA014109FBD3
:1003F80008FA8A4502FA06F200FA06F308D96118E3
:1004080009F1FF3048D28A4546D9A9F102092144A9
:10041800A1EB0A01BFB2B1FBFEF00EFB101147EAD7
:10042800014700FB08F8B84507D9E71900F1FF3183
:100438002ED2B8452CD90238274440EA0940A7EB08
:100448000807A0FB02894F45C64649461AD317D06C
:100458005DB1B3EB0E0267EB010707FA0CFCF24043
:100468004CEA0202F740C5E9002700263146BDE8FC
:10047800F0872E4628460BE70646E9E61846FDE6CD
:100488004345E5D2B8EB020E69EB04010138DFE71A
:100498000846D2E760468DE78146B9E7664675E7C4
:1004A80030464AE7ACF1020C394413E702383C44C1
:1004B80024E700BF704700BF80B483B000AF786006
:1004C800074A7B6832F81330002B14BF012300233E
:1004D800DBB218460C37BD465DF8047B704700BF99
:1004E800A401002080B483B000AF7860074A7B681D
:1004F80032F81330012B0CBF01230023DBB218465E
:100508000C37BD465DF8047B704700BFA40100208E
:1005180080B485B000AF78600B46FB701346BB70A3
:100528007B681B780133FB73FA7BBB789A4201D94D
:10053800FB78FB737B68FA7B1A7000BF1437BD46E3
:100548005DF8047B7047000080B500AF00F09CFDAB
:100558000E4B1A780E4B9A700E4B1A780C4B5A7039
:100568000D4B1A780A4B1A700C4B1A78084BDA7034
:100578000B4B1A78064B1A710A4B1A78044B5A71AE
:10058800094B1A78024B9A7100BF80BDC90100203F
:1005980038000020C6010020C4010020C801002046
:1005A800C7010020CA010020C501002080B400AFA7
:1005B800074B084A92E80300186004331980023395
:1005C8000A0C1A7000BFBD465DF8047B704700BF77
:1005D800400000203800002080B500AF154B9B7903
:1005E8001946062000F02EFD124B5B7919460520AE
:1005F80000F028FD0F4B1B791946042000F022FD5E
:100608000C4BDB781946032000F01CFD094B9B7846
:100618001946022000F016FD064B5B7819460120AA
:1006280000F010FD034B1B781946002000F00AFD6E
:1006380000BF80BD4000002080B582B000AF0346F7
:10064800FB71FB79062B3BD801A252F823F000BFBF
:1006580075060008810600088D060008990600083E
:10066800A5060008B1060008BD0600083B220021C7
:100678001648FFF74DFF24E03B2200211448FFF7FE
:1006880047FF1EE0172200211248FFF741FF18E03C
:10069800072201211048FFF73BFF12E01F2201212A
:1006A8000E48FFF735FF0CE00C2201210C48FFF73C
:1006B8002FFF06E0632200210A48FFF729FF00E028
:1006C80000BF00BF0837BD4680BD00BF4000002006
:1006D8004100002042000020430000204400002088
:1006E800450000204600002080B588B004AFF860BF
:1006F800B96011461A460B46FB711346BB71BB79AC
:10070800002B15D0154B1B7883F00103DBB2002BAF
:100718000ED0FB6898B2BB6899B2002302931823E5
:1007280001930023009300230D4A00F079FF10E0A5
:10073800FB6898B2BB6899B2FB799AB21823029306
:10074800002301934FF4FC630093022300F0EAFEB8
:1007580000BF00BF1037BD4680BD00BF08000020A5
:100768006059000880B584B004AF002300931423B7
:10077800F0220021002000F09BFD274B1B78002B66
:100788000DD10023029310230193002300934FF609
:10079800FF73224A0221042000F042FF38E01E4B7A
:1007A8001B78012B0DD10023029310230193002302
:1007B80000934FF6FF731A4A0221042000F030FF1D
:1007C80026E00023029310230193002300934FF6A1
:1007D800FF73144A0221042000F022FF124BDB7839
:1007E800002B01D0114A00E0114A0F4BDB78002B97
:1007F80002D04FF4FC6301E04FF4784300210291EA
:10080800102101910021009102218C2000F008FFA5
:1008180000BFBD4680BD00BF3400002064590008F9
:10082800705900087C590008040000208859000805
:100838008C59000880B586B004AF78607B689A78D8
:10084800374B1B78012B03D1364B1B78022B07D073
:10085800334B1B78022B05D1324B1B78022B01D16D
:10086800012300E0002303F00103DBB264214620EA
:10087800FFF73AFF00230293182301930023009304
:100888004FF4FC63284A6421642000F0C9FE7B68A9
:100898005A78234B1B78012B03D1224B1B78012B51
:1008A80007D01F4B1B78022B05D11E4B1B78012B41
:1008B80001D1012300E0002303F00103DBB264212E
:1008C8006E20FFF711FF00230293182301930023E2
:1008D80000934FF4FC63144A64218C2000F0A0FEBE
:1008E8007B681A780E4B1B78012B03D10D4B1B78B4
:1008F800002B07D00A4B1B78022B05D1094B1B781C
:10090800002B01D1012300E0002303F00103DBB237
:1009180064219620FFF7E8FE00BF0837BD4680BD7A
:1009280034000020000000209059000880B586B0EF
:1009380004AF7860002302931823019300230093E7
:100948004FF6E0733F4A8221142000F069FE7B686D
:10095800DA783D4B1B78012B05D13C4B1B78032BD8
:1009680001D1012300E0002303F00103DBB282215F
:100978003220FFF7B9FE00230293182301930023C6
:1009880000934FF6E073324A8221462000F048FE79
:100998007B681A792C4B1B78012B05D12B4B1B78C4
:1009A800042B01D1012300E0002303F00103DBB293
:1009B80082216420FFF798FE0023029318230193F5
:1009C800002300934FF6E073224A8221782000F03A
:1009D80027FE7B685A791C4B1B78012B05D11B4BD2
:1009E8001B78052B01D1012300E0002303F001034C
:1009F800DBB282219620FFF777FE002302931823AB
:100A08000193002300934FF6E073134A8221B42028
:100A180000F006FE7B689A790B4B1B78012B05D1F9
:100A28000A4B1B78062B01D1012300E0002303F0B9
:100A38000103DBB28221D220FFF756FE00BF083740
:100A4800BD4680BD945900083400002000000020F5
:100A5800985900089C590008A059000880B584B02E
:100A680004AF224B1B7883F00103DBB2002B39D192
:100A78001F4B1B78002B14BF01230023DBB283F02C
:100A88000103DBB203F00103DAB2194B1A70184BF9
:100A98001B78002B02D04FF6E07300E00023009390
:100AA800DC23F022B421002000F002FC104B1B785C
:100AB800002B01D0002201E04FF6E0720C4B1B78AE
:100AC800002B02D04FF6E07300E0002300210291D2
:100AD8001821019100931346064ABE21462000F0D2
:100AE8009FFD00E000BFBD4680BD00BF4F00002055
:100AF80052000020A459000880B400AF124BDB78E4
:100B080083F00103DBB2002B19D1104B9A780E4BFE
:100B18001B789A4214D10D4B5A780B4B5B789A424A
:100B28000ED10A4B1A78084B9B789A4208D1084B89
:100B380001221A70074B40F6B8321A8000E000BF55
:100B4800BD465DF8047B7047040000203800002093
:100B58004F0000205000002080B500AF00F02EFAB2
:100B6800FFF7F2FCFFF722FD0C4B00221A800C4B1A
:100B780001221A700B4B00221A800B4B00221A809C
:100B88000A4B00221A700A4B00221A70094B0022E5
:100B98001A80002000F05AFB00BF80BD48000020EA
:100BA800080000204A0000204C0000204E000020D1
:100BB8004F0000205000002080B582B000AFA74B46
:100BC8001B8832339AB2A54B1A80A44B1B88B3F505
:100BD800FA7F11D3A14B00221A80A14B1B78002B5E
:100BE80014BF01230023DBB283F00103DBB203F05F
:100BF8000103DAB29A4B1A700120FFF75DFC034635
:100C0800FB71FB79002B5AD0964B1B7883F00103BC
:100C1800DBB2002B09D0934B01221A70924B0022B1
:100C28001A80924B00221A8052E08F4B1B884EF696
:100C38005F22934205D88C4B1B8832339AB28A4B79
:100C48001A80894B1B88B3F5FA6F41D3874B1B88F1
:100C580032339AB2854B1A80844B1B88C72B37D9FD
:100C6800824B00221A80824B1B78012B05D1814BC5
:100C78001B781846FFF7E0FC2AE07D4B1B78022B17
:100C880026D17C4B1B78022B05D1172200217A48EC
:100C9800FFF73EFC1CE0774B1B78012B05D13B226C
:100CA80000217648FFF734FC12E0724B1B78002BCA
:100CB8000ED13B2200217248FFF72AFC08E0694B5D
:100CC80000221A70684B00221A80684B00221A8092
:100CD800674B1B78012B01D0FFF736FC0020FFF78C
:100CE80001FC0346BB710120FFF7FCFB03467B7147
:100CF8000220FFF7F7FB03463B71BB79002B1CD0A2
:100D08005B4B1B78002B08D1594B01221A70594BA9
:100D180002221A70FFF74AFC0FE0554B1B78012B93
:100D280008D1FFF759FC524B02221A70514B02228C
:100D38001A7002E04E4B00221A704D4B1B78022BA2
:100D480036D0022B78DC002B73D0012B74D17B7941
:100D5800002B04D0474B1B781846FFF76DFC3B79F6
:100D6800002B1AD0434B1B785A1C464B83FB0213AB
:100D780013449910D317C91A0B46DB005B1AD11A12
:100D8800CAB23C4B1A703B4B1B78002B05D1FFF7BE
:100D980023FCFFF7D9FBFFF709FC3B4B3B4A92E8E2
:100DA800030018600433198002330A0C1A7043E0F8
:100DB8007B79002B1CD02F4B1B78022B05D11722D7
:100DC80000212D48FFF7A4FB12E02A4B1B78012BCA
:100DD80005D13B2200212948FFF79AFB08E0254B63
:100DE8001B78002B04D13B2200212548FFF790FBFC
:100DF8003B79002B1FD01F4B1B78002B12D11E4BA9
:100E0800DB78002B14BF01230023DBB283F001033E
:100E1800DBB203F00103DAB2174BDA70154B02228A
:100E28001A7008E0134B1B780133DAB2114B1A70B1
:100E380001E000BF00E000BFFFF75EFE144B1B7827
:100E4800002B2FD0134B1B88322B25D9114B1B8815
:100E5800323B9AB20F4B1A8024E000BF48000020B2
:100E6800080000204E0000204A0000204C0000200E
:100E780034000020000000200400002005000020AD
:100E880006000020932449923800002040000020EA
:100E98004F00002050000020094B00221A80094B07
:100EA80000221A70FFF75EFC0748FFF7C3FC0648EC
:100EB800FFF73CFDFFF7D2FD00BF0837BD4680BDF8
:100EC800500000204F0000203800002080B500AFFF
:100ED80001220821024801F09DFD00BF80BD00BF2E
:100EE800000C024080B584B000AF002208212F48D2
:100EF80001F090FD012208212C4801F08BFD0A2306
:100F080002222B492B4803F076FB0023FB604FF4A9
:100F180000437B8100237B603FE07B68002B06DB7E
:100F28007B68032B03DC7B680433FB6018E07B6879
:100F3800032B07DD7B68072B04DC7B68C3F1070301
:100F4800FB600DE07B68072B06DD7B680B2B03DC61
:100F58007B680433FB6003E07B68C3F11703FB6025
:100F6800134B1A887B8913409BB2002B05D0124A79
:100F7800FB68002122F8131009E00F4AFB6832F8D9
:100F88001330013399B20C4AFB6822F813107B899D
:100F98005B087B817B6801337B607B680F2BBCDD42
:100FA80000BF00BF1037BD4680BD00BF000C024027
:100FB8005400002004010020A401002080B500AFE7
:100FC8001E2001F095F903461A461C4B1A7016208C
:100FD80001F08EF903461A46184B5A70152001F095
:100FE80087F903461A46154B9A70062001F080F9D6
:100FF80003461A46114BDA700F2001F079F90346BF
:101008001A460E4B1A71092001F072F903461A4666
:101018000A4B5A71172001F06BF903461A46074B21
:101028009A7132230322D021054802F071F9034650
:10103800002B00D0FEE700BF80BD00BFCC01002020
:101048006000002080B588B004AF03460A46FB71F3
:101058001346BB71BB79184601F04AF90346FB7386
:10106800FB799AB20A2302930123019307F10F0334
:1010780000930123D021034801F02AFE00BF103756
:10108800BD4680BD6000002080B584B004AF0A234F
:10109800029307230193254B009301230022D021BB
:1010A800234801F00FFF214B1B78184601F006F981
:1010B80003461A461F4B1A701C4B5B78184601F002
:1010C800FDF803461A461C4B1A70184B9B781846B5
:1010D80001F0F4F803461A46184B1A70134BDB78E4
:1010E800184601F0EBF803461A46154B1A700F4BD9
:1010F8001B79184601F0E2F803461A46114B1A709C
:101108000A4B5B79184601F0D9F803461A460E4B8C
:101118001A70064B9B79184601F0D0F803461A4618
:101128000A4B1A7000BFBD4680BD00BFCC0100202D
:1011380060000020C4010020C6010020C901002071
:10114800C8010020C7010020CA010020C5010020F5
:1011580080B483B000AF0346FB80044AFB88138049
:1011680000BF0C37BD465DF8047B7047FEFF0F607B
:1011780080B483B000AF0346FB80044AFB885380E9
:1011880000BF0C37BD465DF8047B7047FEFF0F605B
:1011980080B483B000AF064B5B889BB2FB80FB88B2
:1011A8009BB218460C37BD465DF8047B704700BFFC
:1011B800FEFF0F6090B583B000AF044608461146A5
:1011C8001A462346FB800346BB800B467B801346AA
:1011D8003B802A20FFF7BCFFFB881B0A9BB21846FE
:1011E800FFF7C6FFFB88DBB29BB21846FFF7C0FFCC
:1011F8007B881B0A9BB21846FFF7BAFF7B88DBB2D5
:101208009BB21846FFF7B4FF2B20FFF7A1FFBB885E
:101218001B0A9BB21846FFF7ABFFBB88DBB29BB239
:101228001846FFF7A5FF3B881B0A9BB21846FFF735
:101238009FFF3B88DBB29BB21846FFF799FF2C2033
:10124800FFF786FF00BF0C37BD4690BD80B584B060
:1012580000AF0346FB80154B1B88013B9AB2134B2A
:101268005B88013B9BB200210020FFF7A3FF00230E
:10127800FB8111E00023BB8106E0FB881846FFF7DD
:1012880077FFBB890133BB81084B5B88BA899A42D7
:10129800F3D3FB890133FB81044B1B88FA899A42FB
:1012A800E8D300BF00BF1037BD4680BDD401002081
:1012B80090B585B000AF0446084611461A46234645
:1012C800FB800346BB800B467B8013463B807B88B4
:1012D800013B9AB23B88013B9BB2B988F888FFF77B
:1012E80069FFBB88FB8110E0FB88BB8106E03B8C73
:1012F8001846FFF73DFFBB890133BB81BA897B885C
:101308009A42F4D3FB890133FB81FA893B889A42DC
:10131800EAD300BF00BF1437BD4690BD80B582B088
:1013280000AF0346FB800B46BB8013467B80BB881F
:10133800FA88B988F888FFF73DFF7B881846FFF7D9
:1013480017FF00BF0837BD4680BD000090B587B0C5
:1013580000AF0446084611461A462346FB8003465A
:10136800BB800B46FB7013463B8000237B75FB88D4
:101378003B8297F82C305B08FB73FB7BDB08DBB206
:101388001A46FB7B03F00703DBB2002B14BF0123D3
:101398000023DBB213449AB297F82C309BB212FBAD
:1013A80003F3BB81FB78203BFB70FB7B9AB2FB8885
:1013B80013449BB2013B9CB297F82C309AB2BB887D
:1013C80013449BB2013B9BB2B988F8882246FFF7C9
:1013D800F1FE00237B827AE097F82C300C2B28D082
:1013E80097F82C30102B08D1FA787B8A3C491201E7
:1013F8000A4413441B78FB751BE097F82C30182B14
:101408000BD1FA78798A374813465B0013441B01DD
:1014180003440B441B78FB750BE097F82C30202B0A
:101428005AD1FA787B8A304992010A4413441B78CE
:10143800FB750023BB7544E097F83030002B20D1B2
:10144800FA7DBB7D42FA03F303F00103002B04D0BD
:101458003B881846FFF78CFE03E03B8D1846FFF7E4
:1014680087FE7B7D01337B757B7DFA7BB3FBF2F1D5
:1014780002FB01F29B1ADBB2002B1FD100237B7504
:1014880022E0FA7DBB7D42FA03F303F00103002B4F
:1014980005D03A88B988FB881846FFF73FFFFB88D4
:1014A8000133FB80FA883B8AD21AFB7B9A4205D12A
:1014B8003B8AFB80BB880133BB8005E0BB7D0133E1
:1014C800BB75BB7D072BB7D97B8A01337B827A8AB0
:1014D800BB899A4280D300E000BF1C37BD4690BD4F
:1014E800AC5900089C5F00086C71000880B485B096
:1014F80000AF03460A46FB711346BB710123FB602C
:1015080004E0FA79FB6802FB03F3FB60BB795A1E1F
:10151800BA71002BF5D1FB6818461437BD465DF843
:10152800047B704790B589B004AF0446084611465D
:101538001A462346FB800346BB800B467B80134636
:101548007B700023BB7397F828305B087B730023FC
:10155800FB7359E07C887A78FB7BD31ADBB2013BBA
:10156800DBB219460A20FFF7C1FF0346B4FBF3F1CB
:101578002A4BA3FB0123DA0813469B0013445B00A4
:10158800CA1A13463B73BB7B002B21D1FA7B7B78AD
:10159800013B9A421CDA3B7B002B17D1FB7B9AB2AA
:1015A8007B7B9BB212FB03F39AB2FB88134498B27D
:1015B8003A8CB9880023029397F828300193BB8CA2
:1015C800009313462022FFF7C1FE1AE00123BB73E4
:1015D800FB7B9AB27B7B9BB212FB03F39AB2FB882C
:1015E800134498B23B7B3033DAB23C8CB988002381
:1015F800029397F828300193BB8C00932346FFF79A
:10160800A5FEFB7B0133FB73FA7B7B789A42A1D35F
:1016180000BF00BF1437BD4690BD00BFCDCCCCCCB9
:1016280090B58BB004AFBA601A460346FB810B46EF
:10163800BB811346FB80FB89BB820023FB7548E016
:10164800FB7D002B45D1FA89264B1B88194697F854
:101658002C305B08DBB2CB1A9A423FDCBA89214BAB
:101668005B88194697F82C30CB1A9A4236DCBB684F
:101678001B78802B02D90123FB752AE0BB681B78F5
:101688000D2B0BD197F82C309AB2BB891344BB8130
:10169800BB8AFB81BB680133BB601AE0BB681A7860
:1016A800FC88B989F88997F83030029397F82C307C
:1016B80001933B8D00932346FFF748FE97F82C30A3
:1016C8005B08DBB29AB2FB891344FB81BB68013328
:1016D800BB60BB681B78002BB2D100E000BF1C3791
:1016E800BD4690BDD401002080B483B000AF03464E
:1016F800FB71FB791B09DBB203F00303DBB2002BA0
:1017080007D00A4B4FF4A0721A80084BF0225A8077
:1017180006E0064BF0221A80044B4FF4A0725A8060
:1017280000BF0C37BD465DF8047B7047D40100202C
:1017380080B500AF00224FF40051AA4801F06AF9C1
:101748004FF4FA7000F094FE01224FF40051A548BE
:1017580001F060F94FF4FA7000F08AFE0020FFF7FC
:10176800C3FFD320FFF7F4FCFFF712FD03461A4628
:101778009D4B9A80FFF70CFD03461A469A4B9A80B8
:10178800FFF706FD03461A46974B9A80964B9B88AF
:101798001B029AB2944B9A80FFF7FAFC03461A464A
:1017A800914B9B8813439AB28F4B9A80CF20FFF7B7
:1017B800CFFC0020FFF7DCFCC120FFF7D9FC30206C
:1017C800FFF7D6FCED20FFF7C3FC6420FFF7D0FC41
:1017D8000320FFF7CDFC1220FFF7CAFC8120FFF79A
:1017E800C7FCE820FFF7B4FC8520FFF7C1FC1020F8
:1017F800FFF7BEFC7A20FFF7BBFCCB20FFF7A8FC65
:101808003920FFF7B5FC2C20FFF7B2FC0020FFF7CA
:10181800AFFC3420FFF7ACFC0220FFF7A9FCF7204F
:10182800FFF796FC2020FFF7A3FCEA20FFF790FCC7
:101838000020FFF79DFC0020FFF79AFCC020FFF76F
:1018480087FC1B20FFF794FCC120FFF781FC0120D7
:10185800FFF78EFCC520FFF77BFC3020FFF788FCE4
:101868003020FFF785FCC720FFF772FCB720FFF791
:101878007FFC3620FFF76CFC0820FFF779FC3A2044
:10188800FFF766FC5520FFF773FCB120FFF760FCFB
:101898000020FFF76DFC1A20FFF76AFCB620FFF75F
:1018A80057FC0A20FFF764FCA220FFF761FCF22036
:1018B800FFF74EFC0020FFF75BFC2620FFF748FCF3
:1018C8000120FFF755FCE020FFF742FC0F20FFF74F
:1018D8004FFC2A20FFF74CFC2820FFF749FC082082
:1018E800FFF746FC0E20FFF743FC0820FFF740FCFB
:1018F8005420FFF73DFCA920FFF73AFC4320FFF7EF
:1019080037FC0A20FFF734FC0F20FFF731FC0020DA
:10191800FFF72EFC0020FFF72BFC0020FFF728FC28
:101928000020FFF725FCE120FFF712FC0020FFF75D
:101938001FFC1520FFF71CFC1720FFF719FC0720D8
:10194800FFF716FC1120FFF713FC0620FFF710FC29
:101958002B20FFF70DFC5620FFF70AFC3C20FFF771
:1019680007FC0520FFF704FC1020FFF701FC0F20FF
:10197800FFF7FEFB3F20FFF7FBFB3F20FFF7F8FBDD
:101988000F20FFF7F5FB2B20FFF7E2FB0020FFF706
:10199800EFFB0020FFF7ECFB0120FFF7E9FB3F20FE
:1019A800FFF7E6FB2A20FFF7D3FB0020FFF7E0FB59
:1019B8000020FFF7DDFB0020FFF7DAFBEF20FFF741
:1019C800D7FB1120FFF7C4FB782000F051FD292038
:1019D800FFF7BEFB01224021024801F01BF800BFBF
:1019E80080BD00BF00080240D401002080B500AFD0
:1019F80000F0CCFC00F026F800F03EF900F014FAF4
:101A080000F08AF800F0B6F800F0EAF8FFF790FE68
:101A1800FFF7D4FAFFF75AFA00F086FAFFF79CF8B6
:101A2800322000F08BFA00BF054B1B88002BFBD03F
:101A3800034B00221A80FFF755FAFFF7BDF8F2E7CB
:101A48005600002080B594B000AF07F12003302283
:101A58000021184603F06CFF07F10C0300221A60FE
:101A68005A609A60DA601A610023BB60284B1B6CCD
:101A7800274A43F080531364254B1B6C03F08053B3
:101A8800BB60BB6800237B60224B1B68214A43F480
:101A9800804313601F4B1B6803F480437B607B68A3
:101AA80002233B620123FB6210233B630223BB63D7
:101AB8000023FB6308233B64A8237B640223BB64E5
:101AC8000423FB6407F12003184602F0ABF8034631
:101AD800002B01D000F022FA0F23FB6002233B61A8
:101AE80000237B614FF4A053BB614FF4A053FB610B
:101AF80007F10C030521184602F00CFB0346002BE6
:101B080001D000F00BFA00BF5037BD4680BD00BFC2
:101B1800003802400070004080B500AF124B134AF5
:101B28001A60114B124A5A600F4B00229A600E4BF2
:101B38000022DA600C4B4FF480421A610A4B0022F3
:101B48005A61094B00229A61074B0022DA61064B61
:101B580000221A62044800F077FF0346002B01D0E8
:101B680000F0DCF900BF80BD600000200054004098
:101B7800A086010080B500AF174B184A1A60164BB3
:101B88004FF482725A60144B00229A60124B002262
:101B9800DA60114B00221A610F4B00225A610E4B7A
:101BA8004FF400729A610C4B0022DA610A4B002252
:101BB8001A62094B00225A62074B00229A62064BAE
:101BC8000A22DA62044802F08DFC0346002B01D099
:101BD80000F0A4F900BF80BD0401002000300140DE
:101BE80080B586B000AF07F1080300221A605A607A
:101BF8009A60DA603B4600221A605A601D4B4FF02B
:101C080080421A601B4B40F247325A60194B00223F
:101C18009A60184B6322DA60164B00221A61154B42
:101C280000229A61134803F00DF90346002B01D0F6
:101C380000F074F94FF48053BB6007F108031946AC
:101C48000C4803F0C7FA0346002B01D000F066F9F0
:101C580000233B6000237B603B461946054803F0A0
:101C6800E3FC0346002B01D000F058F900BF1837F9
:101C7800BD4680BD5C01002080B58CB000AF07F187
:101C88001C0300221A605A609A60DA601A61002305
:101C9800BB615F4B1B6B5E4A43F0100313635C4BE5
:101CA8001B6B03F01003BB61BB6900237B61584BBE
:101CB8001B6B574A43F004031363554B1B6B03F02C
:101CC80004037B617B6900233B61514B1B6B504ACA
:101CD80043F0800313634E4B1B6B03F080033B619F
:101CE8003B690023FB604A4B1B6B494A43F00103E5
:101CF8001363474B1B6B03F00103FB60FB68002376
:101D0800BB60434B1B6B424A43F008031363404BD1
:101D18001B6B03F00803BB60BB6800237B603C4B74
:101D28001B6B3B4A43F040031363394B1B6B03F0B7
:101D380040037B607B6800233B60354B1B6B344A58
:101D480043F002031363324B1B6B03F002033B6047
:101D58003B68002270212F4800F05CFE00224FF4FF
:101D680001512D4800F056FE002220212B4800F09A
:101D780051FE002208212A4800F04CFE7023FB6126
:101D880001233B6200237B620023BB6207F11C0333
:101D98001946204800F0A2FC4FF40153FB610123CF
:101DA8003B6200237B620023BB6207F11C031946D8
:101DB800194800F093FC4023FB6100233B62002399
:101DC8007B6207F11C031946164800F087FC2023A4
:101DD800FB6101233B6200237B620023BB6207F1A6
:101DE8001C0319460D4800F079FC0823FB61012308
:101DF8003B6200237B620023BB6207F11C03194688
:101E0800074800F06BFC00BF3037BD4680BD00BFFF
:101E1800003802400010024000080240001802404A
:101E2800000C02400000024080B58EB000AF07F100
:101E38001C0300221A605A609A60DA601A615A61BB
:101E48009A613B4600221A605A609A60DA601A6109
:101E58005A619A612F4B4FF020421A602D4B2E4A3F
:101E68005A602C4B00229A602A4B0022DA60294BD8
:101E780000221A61274B10225A61264B00229A61D0
:101E8800244B0022DA61234B00221A62214B0022E4
:101E98005A62204B4FF480529A621E4B0022DA623B
:101EA8001C4B4FF480421A631A4B00225A63194B99
:101EB80000229A63174B00225A640F23FB610F23F9
:101EC8003B623C237B620023BB621023FB6211232D
:101ED8003B6300237B6308233B600F237B6009235C
:101EE800BB600023FB6010233B6111237B6100234F
:101EF800BB613A4607F11C031946064802F05EFF2B
:101F08000346002B01D000F009F800BF3837BD4662
:101F180080BD00BFB4000020040100A080B400AF61
:101F280072B600BFFEE7000080B500AF024802F0BD
:101F3800D9FF00BF80BD00BF5C01002080B483B022
:101F480000AF0346FB80084AFB881380064B1A88BB
:101F5800064B1A80064B00221A8000BF0C37BD467C
:101F68005DF8047B704700BF5A000020580000202D
:101F78005600002080B483B000AF78607B681B688F
:101F8800B3F1804F14D10D4B1B88002B10D00B4B95
:101F98001B88013B9AB2094B1A80084B1B88002BFF
:101FA80006D1074B01221A80064B1A88034B1A8068
:101FB80000BF0C37BD465DF8047B70475800002011
:101FC800560000205A00002080B483B000AF0023E0
:101FD8007B60104B5B6C0F4A43F4804353640D4B9A
:101FE8005B6C03F480437B607B6800233B60094B98
:101FF8001B6C084A43F080531364064B1B6C03F0B8
:1020080080533B603B6800BF0C37BD465DF8047BDE
:10201800704700BF0038024080B58AB000AF7860D2
:1020280007F1140300221A605A609A60DA601A6194
:102038007B681B68194A93422BD100233B61184BDC
:102048001B6B174A43F002031363154B1B6B03F01A
:1020580002033B613B69C0237B611223BB61002300
:10206800FB6103233B6204237B6207F114031946D7
:102078000C4800F033FB0023FB60094B1B6C084A3B
:1020880043F400131364064B1B6C03F40013FB604A
:10209800FB6800BF2837BD4680BD00BF0054004024
:1020A800003802400004024080B58AB000AF786072
:1020B80007F1140300221A605A609A60DA601A6104
:1020C8007B681B68194A93422BD100233B61184B4C
:1020D8005B6C174A43F480535364154B5B6C03F4F1
:1020E80080533B613B690023FB60114B1B6B104A1B
:1020F80043F0020313630E4B1B6B03F00203FB60F8
:10210800FB6838237B610223BB610023FB61032347
:102118003B6205237B6207F114031946054800F06A
:10212800DDFA00BF2837BD4680BD00BF0030014042
:10213800003802400004024080B584B000AF7860E7
:102148007B681B68B3F1804F15D10023FB600C4BF3
:102158001B6C0B4A43F001031364094B1B6C03F01F
:102168000103FB60FB68002200211C2000F07FFABD
:102178001C2000F098FA00BF1037BD4680BD00BF94
:102188000038024080B586B000AF3B1D00221A60BF
:102198005A609A60DA601A611C4B1B68002B31D1B7
:1021A8001A4B01221A6000233B60194B9B6B184A9B
:1021B80043F001039363164B9B6B03F001033B60F1
:1021C8003B684FF688737B600223BB600023FB608B
:1021D80003233B610C237B613B1D19460D4800F02E
:1021E8007DFA4CF2B3737B600223BB600023FB6073
:1021F80003233B610C237B613B1D1946064800F015
:102208006DFA00E000BF1837BD4680BD5C000020B5
:102218000038024000100240000C024080B582B035
:1022280000AF7860FFF7AEFF00BF0837BD4680BD3E
:1022380080B400AFFEE780B400AFFEE780B400AF23
:10224800FEE780B400AFFEE780B400AFFEE780B4DD
:1022580000AF00BFBD465DF8047B704780B400AF97
:1022680000BFBD465DF8047B704780B400AF00BF77
:10227800BD465DF8047B704780B500AF00F0D8F824
:1022880000BF80BD80B500AF024802F09BFE00BFD2
:1022980080BD00BF5C01002080B400AF064BD3F8BE
:1022A8008830054A43F47003C2F8883000BFBD4641
:1022B8005DF8047B704700BF00ED00E080B483B098
:1022C80000AF0346FB71FB791B09DBB21A4692008B
:1022D80013445B00DAB2FB7903F00F03DBB213445B
:1022E800DBB218460C37BD465DF8047B704700002A
:1022F80080B483B000AF0346FB71FB790D4AA2FBA3
:102308000323DB08DBB21B0158B2FA79094BA3FBA4
:102318000213D9080B469B000B445B00D31ADBB2AF
:102328005BB203435BB2DBB218460C37BD465DF8BF
:10233800047B7047CDCCCCCCDFF834D00D480E49A7
:102348000E4A002302E0D458C4500433C4188C4207
:10235800F9D30B4A0B4C002301E013600432A2426C
:10236800FBD3FFF799FF03F0BFFAFFF73FFB704776
:1023780000000220000000201800002054890008F6
:102388001800002014020020FEE7000080B500AF0E
:102398000E4B1B680D4A43F4007313600B4B1B680C
:1023A8000A4A43F480631360084B1B68074A43F4E6
:1023B80080731360032000F04FF90F2000F008F835
:1023C800FFF702FE0023184680BD00BF003C024014
:1023D80080B582B000AF7860124B1A68124B1B7838
:1023E80019464FF47A73B3FBF1F3B2FBF3F31846D3
:1023F80000F067F90346002B01D001230EE07B684B
:102408000F2B0AD8002279684FF0FF3000F02FF91F
:10241800064A7B681360002300E00123184608374A
:10242800BD4680BD0C0000201400002010000020D4
:1024380080B400AF064B1B781A46064B1B68134442
:10244800044A136000BFBD465DF8047B704700BFB7
:10245800140000201002002080B400AF034B1B685A
:102468001846BD465DF8047B704700BF1002002087
:1024780080B584B000AF7860FFF7EEFFB8607B6886
:10248800FB60FB68B3F1FF3F05D00A4B1B781A4687
:10249800FB681344FB6000BFFFF7DEFF0246BB6822
:1024A800D31AFA689A42F7D800BF00BF1037BD4662
:1024B80080BD00BF1400002080B485B000AF7860F4
:1024C8007B6803F00703FB600C4BDB68BB60BA68F2
:1024D8004FF6FF031340BB60FB681A02BB68134347
:1024E80043F0BF6343F40033BB60044ABB68D36066
:1024F80000BF1437BD465DF8047B704700ED00E06F
:1025080080B400AF044BDB681B0A03F007031846CE
:10251800BD465DF8047B704700ED00E080B483B0F1
:1025280000AF0346FB7197F90730002B0BDBFB79F3
:1025380003F01F02074997F907305B09012000FAE9
:1025480002F241F8232000BF0C37BD465DF8047B3A
:10255800704700BF00E100E080B483B000AF0346DD
:102568003960FB7197F90730002B0ADB3B68DAB258
:102578000C4997F907301201D2B20B4483F80023B3
:102588000AE03B68DAB20849FB7903F00F03043B21
:102598001201D2B20B441A7600BF0C37BD465DF863
:1025A800047B704700E100E000ED00E080B489B0F2
:1025B80000AFF860B9607A60FB6803F00703FB615D
:1025C800FB69C3F10703042B28BF0423BB61FB6924
:1025D8000433062B02D9FB69033B00E000237B612F
:1025E8004FF0FF32BB6902FA03F3DA43BB681A40C3
:1025F8007B699A404FF0FF317B6901FA03F3D943B5
:102608007B680B40134318462437BD465DF8047BAE
:102618007047000080B582B000AF78607B68013BEE
:10262800B3F1807F01D301230FE00A4A7B68013BA5
:1026380053600F214FF0FF30FFF78EFF054B00224C
:102648009A60044B07221A60002318460837BD46D3
:1026580080BD00BF10E000E080B582B000AF7860B8
:102668007868FFF729FF00BF0837BD4680BD80B5F1
:1026780086B000AF0346B9607A60FB7300237B61C4
:10268800FFF73EFF78617A68B9687869FFF78EFFCF
:10269800024697F90F3011461846FFF75DFF00BF55
:1026A8001837BD4680BD80B582B000AF0346FB71C8
:1026B80097F907301846FFF731FF00BF0837BD46C6
:1026C80080BD80B582B000AF78607868FFF7A2FF60
:1026D800034618460837BD4680BD000080B489B05F
:1026E80000AF7860396000237B6100233B610023E1
:1026F800BB610023FB616BE10122FB6902FA03F372
:102708007B613B681B687A6913403B613A697B6966
:102718009A4240F05A813B685B6803F00303012B3F
:1027280005D03B685B6803F00303022B30D17B685C
:102738009B68BB61FB695B00032202FA03F3DB437E
:10274800BA691340BB613B68DA68FB695B0002FA4F
:1027580003F3BA691343BB617B68BA699A607B6803
:102768005B68BB610122FB6902FA03F3DB43BA69C8
:102778001340BB613B685B681B0903F00102FB69FE
:1027880002FA03F3BA691343BB617B68BA695A60FA
:102798003B685B6803F00303032B17D07B68DB6897
:1027A800BB61FB695B00032202FA03F3DB43BA69EE
:1027B8001340BB613B689A68FB695B0002FA03F34C
:1027C800BA691343BB617B68BA69DA603B685B68C6
:1027D80003F00303022B23D1FB69DA087B68083274
:1027E80053F82230BB61FB6903F007039B000F22FB
:1027F80002FA03F3DB43BA691340BB613B681A6909
:10280800FB6903F007039B0002FA03F3BA69134359
:10281800BB61FB69DA087B680832B96943F82210A2
:102828007B681B68BB61FB695B00032202FA03F348
:10283800DB43BA691340BB613B685B6803F0030282
:10284800FB695B0002FA03F3BA691343BB617B6857
:10285800BA691A603B685B6803F44033002B00F0E8
:10286800B4800023FB60604B5B6C5F4A43F4804399
:1028780053645D4B5B6C03F48043FB60FB685B4A0D
:10288800FB699B08023352F82330BB61FB6903F0F4
:1028980003039B000F2202FA03F3DB43BA691340D8
:1028A800BB617B68524A93422BD07B68514A934262
:1028B80025D07B68504A93421FD07B684F4A934289
:1028C80019D07B684E4A934213D07B684D4A934295
:1028D8000DD07B684C4A934207D07B684B4A9342A1
:1028E80001D107230EE008230CE006230AE00523A4
:1028F80008E0042306E0032304E0022302E00123A6
:1029080000E00023FA6902F0030292009340BA69DA
:102918001343BB613549FB699B080233BA6941F827
:1029280023203B4B1B68BB613B69DB43BA691340FF
:10293800BB613B685B6803F48033002B03D0BA6942
:102948003B691343BB61324ABB691360304B5B6818
:10295800BB613B69DB43BA691340BB613B685B6899
:1029680003F40033002B03D0BA693B691343BB61FE
:10297800274ABB695360264B9B68BB613B69DB43B5
:10298800BA691340BB613B685B6803F48013002B92
:1029980003D0BA693B691343BB611D4ABB699360A5
:1029A8001B4BDB68BB613B69DB43BA691340BB6106
:1029B8003B685B6803F40013002B03D0BA693B69DA
:1029C8001343BB61124ABB69D360FB690133FB61E6
:1029D800FB690F2B7FF690AE00BF00BF2437BD46C2
:1029E8005DF8047B704700BF0038024000380140A2
:1029F800000002400004024000080240000C0240AF
:102A0800001002400014024000180240001C02405E
:102A1800003C014080B483B000AF78600B467B80F7
:102A280013467B707B78002B03D07A887B689A6189
:102A380003E07B881A047B689A6100BF0C37BD46A7
:102A48005DF8047B7047000080B584B000AF786003
:102A58007B68002B01D101232BE17B6893F83D3083
:102A6800DBB2002B06D17B68002283F83C20786813
:102A7800FFF7D2FA7B68242283F83D207B681B6825
:102A88001A687B681B6822F001021A607B681B6861
:102A98001A687B681B6842F400421A607B681B68EE
:102AA8001A687B681B6822F400421A6001F006FD70
:102AB800F8607B685B68814A934207D8FB68804A64
:102AC800934294BF01230023DBB206E0FB687D4AF2
:102AD800934294BF01230023DBB2002B01D00123D2
:102AE800E7E0FB68784AA2FB03239B0CBB607B688A
:102AF8001B685B6823F03F017B681B68BA680A4360
:102B08005A607B681B681B6A23F03F017B685B681F
:102B18006A4A934202D8BB68013309E0BB684FF4A4
:102B2800967202FB03F3694AA2FB03239B09013354
:102B38007A6812680B4313627B681B68DB6923F4AD
:102B48004F4222F0FF027B685B685C498B4219D8D0
:102B5800FB68591E7B685B685B00B1FBF3F3591C8B
:102B680040F6FC730B40002B0AD0FB68591E7B68AB
:102B78005B685B00B1FBF3F30133C3F30B0351E074
:102B880004234FE07B689B68002B11D1FB68581E1B
:102B98007B6859680B465B000B44B0FBF3F30133C9
:102BA800C3F30B03002B0CBF01230023DBB212E09D
:102BB800FB68581E7B6859680B469B000B449900BC
:102BC8000B44B0FBF3F30133C3F30B03002B0CBF2F
:102BD80001230023DBB2002B01D0012322E07B6814
:102BE8009B68002B0ED1FB68581E7B6859680B4602
:102BF8005B000B44B0FBF3F30133C3F30B0343F463
:102C080000430FE0FB68581E7B6859680B469B0021
:102C18000B4499000B44B0FBF3F30133C3F30B03EC
:102C280043F44043796809681343CB617B681B68A8
:102C38001B6823F0C0017B68DA697B681B6A1A434A
:102C48007B681B680A431A607B681B689B6823F4CF
:102C5800034323F0FF037A6811697A68D268114345
:102C68007A6812680B4393607B681B68DB6823F003
:102C7800FF017B685A697B689B691A437B681B68FC
:102C88000A43DA607B681B681A687B681B6842F035
:102C980001021A607B6800221A647B68202283F88C
:102CA8003D207B6800221A637B68002283F83E205F
:102CB800002318461037BD4680BD00BFA08601001E
:102CC8007F841E00FF083D0083DE1B43D34D621046
:102CD80080B588B002AFF860084611461A46034628
:102CE8007B810B463B811346FB80FFF7B5FB786180
:102CF800FB6893F83D30DBB2202B40F0D9807B692C
:102D08000093192301226D49F86800F0ADFD0346D0
:102D1800002B01D00223CCE0FB6893F83C30012B58
:102D280001D10223C5E0FB68012283F83C20FB683F
:102D38001B681B6803F00103012B07D0FB681B68A5
:102D48001A68FB681B6842F001021A60FB681B687E
:102D58001A68FB681B6822F400621A60FB6821226B
:102D680083F83D20FB68402283F83E20FB68002260
:102D78001A64FB683A6A5A62FB68BA8C5A85FB681F
:102D88005B8D9AB2FB681A85FB684D4ADA62F8884F
:102D98003A8979897B690193BB6A00930346F8688D
:102DA80000F0E4FB0346002B52D0012381E07A694E
:102DB800B96AF86800F02EFE0346002B0DD0FB68B8
:102DC8001B6C042B07D1FB681B681A68FB681B681F
:102DD80042F400721A6001236BE0FB685B6A1A78A0
:102DE800FB681B681A61FB685B6A5A1CFB685A62BD
:102DF800FB681B8D013B9AB2FB681A85FB685B8DEB
:102E08009BB2013B9AB2FB685A85FB681B685B69F9
:102E180003F00403042B1BD1FB681B8D002B17D078
:102E2800FB685B6A1A78FB681B681A61FB685B6A57
:102E38005A1CFB685A62FB681B8D013B9AB2FB68FF
:102E48001A85FB685B8D9BB2013B9AB2FB685A8579
:102E5800FB681B8D002BAAD17A69B96AF86800F063
:102E68001AFE0346002B0DD0FB681B6C042B07D100
:102E7800FB681B681A68FB681B6842F400721A60DA
:102E8800012316E0FB681B681A68FB681B6842F49C
:102E980000721A60FB68202283F83D20FB6800223C
:102EA80083F83E20FB68002283F83C20002300E0E2
:102EB800022318461837BD4680BD00BF0200100027
:102EC8000000FFFF80B58CB002AFF86008461146DD
:102ED8001A4603467B810B463B811346FB80FFF76E
:102EE800BBFA7862FB6893F83D30DBB2202B40F0E8
:102EF80008827B6A0093192301227B49F86800F055
:102F0800B3FC0346002B01D00223FBE1FB6893F8D6
:102F18003C30012B01D10223F4E1FB68012283F844
:102F28003C20FB681B681B6803F00103012B07D0DA
:102F3800FB681B681A68FB681B6842F001021A608C
:102F4800FB681B681A68FB681B6822F400621A6039
:102F5800FB68222283F83D20FB68402283F83E204C
:102F6800FB6800221A64FB683A6B5A62FB68BA8EE7
:102F78005A85FB685B8D9AB2FB681A85FB685B4AC9
:102F8800DA62F8883A8979897B6A0193BB6B009386
:102F98000346F86800F080FB0346002B01D00123AC
:102FA800B0E1FB681B8D002B13D100233B62FB684B
:102FB8001B685B693B62FB681B689B693B623B6AF9
:102FC800FB681B681A68FB681B6842F400721A6089
:102FD80084E1FB681B8D012B1BD1FB681B681A68F9
:102FE800FB681B6822F480621A600023FB61FB689F
:102FF8001B685B69FB61FB681B689B69FB61FB697C
:10300800FB681B681A68FB681B6842F400721A6048
:1030180064E1FB681B8D022B1BD1FB681B681A68D7
:10302800FB681B6822F480621A60FB681B681A68D8
:10303800FB681B6842F400621A600023BB61FB68EE
:103048001B685B69BB61FB681B689B69BB61BB69EB
:1030580044E100237B61FB681B685B697B61FB685B
:103068001B689B697B617B6938E1FB681B8D032BBF
:1030780000F2F180FB681B8D012B23D17A6AB96BB2
:10308800F86800F049FD0346002B01D0012339E11F
:10309800FB681B681A69FB685B6AD2B21A70FB6826
:1030A8005B6A5A1CFB685A62FB681B8D013B9AB22B
:1030B800FB681A85FB685B8D9BB2013B9AB2FB6883
:1030C8005A850BE1FB681B8D022B4ED17B6A00935E
:1030D800BB6B00220649F86800F0C6FB0346002BCC
:1030E80008D001230EE100BF020010000000FFFF1E
:1030F80004000100FB681B681A68FB681B6842F43F
:1031080000721A60FB681B681A69FB685B6AD2B2B6
:103118001A70FB685B6A5A1CFB685A62FB681B8D55
:10312800013B9AB2FB681A85FB685B8D9BB2013B39
:103138009AB2FB685A85FB681B681A69FB685B6A68
:10314800D2B21A70FB685B6A5A1CFB685A62FB6849
:103158001B8D013B9AB2FB681A85FB685B8D9BB29D
:10316800013B9AB2FB685A85B8E07B6A0093BB6B57
:1031780000226649F86800F077FB0346002B01D06F
:103188000123BFE0FB681B681A68FB681B6822F410
:1031980080621A60FB681B681A69FB685B6AD2B2B6
:1031A8001A70FB685B6A5A1CFB685A62FB681B8DC5
:1031B800013B9AB2FB681A85FB685B8D9BB2013BA9
:1031C8009AB2FB685A857B6A0093BB6B00224F4911
:1031D800F86800F049FB0346002B01D0012391E079
:1031E800FB681B681A68FB681B6842F400721A6067
:1031F800FB681B681A69FB685B6AD2B21A70FB68C5
:103208005B6A5A1CFB685A62FB681B8D013B9AB2C9
:10321800FB681A85FB685B8D9BB2013B9AB2FB6821
:103228005A85FB681B681A69FB685B6AD2B21A7018
:10323800FB685B6A5A1CFB685A62FB681B8D013B82
:103248009AB2FB681A85FB685B8D9BB2013B9AB208
:10325800FB685A8542E07A6AB96BF86800F05CFC52
:103268000346002B01D001234CE0FB681B681A6958
:10327800FB685B6AD2B21A70FB685B6A5A1CFB680F
:103288005A62FB681B8D013B9AB2FB681A85FB6882
:103298005B8D9BB2013B9AB2FB685A85FB681B6841
:1032A8005B6903F00403042B18D1FB681B681A69D7
:1032B800FB685B6AD2B21A70FB685B6A5A1CFB68CF
:1032C8005A62FB681B8D013B9AB2FB681A85FB6842
:1032D8005B8D9BB2013B9AB2FB685A85FB681B8DDC
:1032E800002B7FF4C2AEFB68202283F83D20FB68E8
:1032F800002283F83E20FB68002283F83C2000234C
:1033080000E0022318462837BD4680BD04000100AE
:1033180080B58AB002AFF8607A603B600B467B816B
:10332800FFF79AF8F8610123BB61FB6893F83D3019
:10333800DBB2202B40F01181FB6900931923012295
:103348008849F86800F090FA0346002B01D0022360
:1033580004E1FB6893F83C30012B01D10223FDE026
:10336800FB68012283F83C20FB681B681B6803F09C
:103378000103012B07D0FB681B681A68FB681B68F0
:1033880042F001021A60FB681B681A68FB681B6838
:1033980022F400621A60FB68242283F83D20FB684F
:1033A80000221A64FB68704ADA62FB681B681A68B4
:1033B800FB681B6842F480721A60FB6900933B68E3
:1033C80000224FF00111F86800F04EFA0346002B76
:1033D8000DD0FB681B681B6803F48073B3F5807F0E
:1033E80003D1FB684FF400721A640323B6E07B89AB
:1033F800DBB21A46FB681B6802F0FE021A61FFF78F
:103408002BF8F861FB681B685B6903F00203022B69
:103418000CBF01230023DBB2FB75FB681B685B69EB
:1034280003F48063B3F5806F0CBF01230023DBB284
:10343800BB7525E0FFF710F80246FB69D31A3A6816
:103448009A4202D33B68002B03D1FB68A02283F881
:103458003D20FB681B685B6903F00203022B0CBF6D
:1034680001230023DBB2FB75FB681B685B6903F46F
:103478008063B3F5806F0CBF01230023DBB2BB75FB
:10348800FB6893F83D30DBB2A02B05D0FB7D002B09
:1034980002D1BB7D002BCDD0FB68202283F83D20D4
:1034A800FB681B685B6903F00203022B29D1FB68E8
:1034B8001B681A68FB681B6842F400721A600023D4
:1034C8003B61FB681B685B693B61FB681B689B6928
:1034D8003B613B69FB690093192301222149F86884
:1034E80000F0C2F90346002B01D0012336E0FB6847
:1034F800202283F83D20FB68002283F83C2000232B
:103508002CE0FB681B681A68FB681B6842F40072B1
:103518001A60FB681B686FF480625A61FB6900934C
:10352800192301220F49F86800F09EF90346002B81
:1035380001D0012312E0BB690133BB61BA697B6822
:103548009A42FFF432AFFB68202283F83D20FB68E3
:10355800002283F83C20012300E00223184620378C
:10356800BD4680BD020010000000FFFF80B588B096
:1035780002AFF860084611461A4603467B810B469F
:103588003B811346FB80FB681B681A68FB681B6855
:1035980042F480721A607B6A00933B6A00224FF003
:1035A8000111F86800F060F90346002B0DD0FB68A4
:1035B8001B681B6803F48073B3F5807F03D1FB6835
:1035C8004FF400721A6403235FE07B89DBB21A466A
:1035D800FB681B6802F0FE021A617B6A3A6A2D4991
:1035E800F86800F098F90346002B01D001234CE05D
:1035F80000237B61FB681B685B697B61FB681B6858
:103608009B697B617B697A6A396AF86800F002FA1B
:103618000346002B0DD0FB681B6C042B07D1FB68FD
:103628001B681A68FB681B6842F400721A60012361
:103638002BE0FB88012B05D13B89DAB2FB681B68BC
:103648001A6121E03B891B0A9BB2DAB2FB681B684E
:103658001A617A6A396AF86800F0DCF90346002BC7
:103668000DD0FB681B6C042B07D1FB681B681A681C
:10367800FB681B6842F400721A60012305E03B896D
:10368800DAB2FB681B681A61002318461837BD4672
:1036980080BD00BF0200010080B588B002AFF860AD
:1036A800084611461A4603467B810B463B81134662
:1036B800FB80FB681B681A68FB681B6842F4806221
:1036C8001A60FB681B681A68FB681B6842F4807202
:1036D8001A607B6A00933B6A00224FF00111F86878
:1036E80000F0C2F80346002B0DD0FB681B681B686E
:1036F80003F48073B3F5807F03D1FB684FF4007245
:103708001A640323AAE07B89DBB21A46FB681B68AC
:1037180002F0FE021A617B6A3A6A5249F86800F0C0
:10372800FAF80346002B01D0012397E000237B61C0
:10373800FB681B685B697B61FB681B689B697B6135
:103748007B697A6A396AF86800F064F90346002BE5
:103758000DD0FB681B6C042B07D1FB681B681A682B
:10376800FB681B6842F400721A60012376E0FB884C
:10377800012B05D13B89DAB2FB681B681A6121E08D
:103788003B891B0A9BB2DAB2FB681B681A617A6A2A
:10379800396AF86800F03EF90346002B0DD0FB6843
:1037A8001B6C042B07D1FB681B681A68FB681B6835
:1037B80042F400721A60012350E03B89DAB2FB68D8
:1037C8001B681A617A6A396AF86800F023F90346B7
:1037D800002B0DD0FB681B6C042B07D1FB681B6802
:1037E8001A68FB681B6842F400721A60012335E00E
:1037F800FB681B681A68FB681B6842F480721A60D1
:103808007B6A00933B6A00224FF00111F86800F0D0
:103818002BF80346002B0DD0FB681B681B6803F4CC
:103828008073B3F5807F03D1FB684FF400721A648C
:10383800032313E07B89DBB243F00103DAB2FB68B0
:103848001B681A617B6A3A6A0649F86800F063F8EF
:103858000346002B01D0012300E000231846183747
:10386800BD4680BD0200010080B584B000AFF8609D
:10387800B9603B601346FB7125E03B68B3F1FF3F3D
:1038880021D0FEF7E9FD0246BB69D31A3A689A428D
:1038980002D33B68002B16D1FB6800221A63FB6831
:1038A800202283F83D20FB68002283F83E20FB6835
:1038B8001B6C43F02002FB681A64FB68002283F843
:1038C8003C20012323E0BB681B0CDBB2012B0DD18C
:1038D800FB681B685B69DA43BB6813409BB2002B2B
:1038E8000CBF01230023DBB21A460CE0FB681B68FF
:1038F8009B69DA43BB6813409BB2002B0CBF0123C2
:103908000023DBB21A46FB799A42B6D00023184648
:103918001037BD4680BD80B584B000AFF860B9608F
:103928007A603B6051E0FB681B685B6903F4806365
:10393800B3F5806F23D1FB681B681A68FB681B68A6
:1039480042F400721A60FB681B686FF480625A6167
:10395800FB6800221A63FB68202283F83D20FB687D
:10396800002283F83E20FB681B6C43F00402FB68CE
:103978001A64FB68002283F83C20012346E07B6838
:10398800B3F1FF3F21D0FEF767FD02463B68D31A2B
:103998007A689A4202D37B68002B16D1FB68002212
:1039A8001A63FB68202283F83D20FB68002283F815
:1039B8003E20FB681B6C43F02002FB681A64FB681E
:1039C800002283F83C20012320E0BB681B0CDBB2FB
:1039D800012B0CD1FB681B685B69DA43BB68134099
:1039E8009BB2002B14BF01230023DBB20BE0FB6862
:1039F8001B689B69DA43BB6813409BB2002B14BF5A
:103A080001230023DBB2002B8DD100231846103789
:103A1800BD4680BD80B584B000AFF860B9607A60FB
:103A28002DE0F86800F0CEF80346002B01D0012302
:103A38002DE0BB68B3F1FF3F21D0FEF70DFD024634
:103A48007B68D31ABA689A4202D3BB68002B16D196
:103A5800FB6800221A63FB68202283F83D20FB687C
:103A6800002283F83E20FB681B6C43F02002FB68B1
:103A78001A64FB68002283F83C20012307E0FB68F6
:103A88001B685B6903F08003802BCAD100231846AA
:103A98001037BD4680BD80B584B000AFF860B9600E
:103AA8007A602DE0F86800F08DF80346002B01D00D
:103AB80001232DE0BB68B3F1FF3F21D0FEF7CCFC1A
:103AC80002467B68D31ABA689A4202D3BB68002BB5
:103AD80016D1FB6800221A63FB68202283F83D2078
:103AE800FB68002283F83E20FB681B6C43F0200231
:103AF800FB681A64FB68002283F83C20012307E076
:103B0800FB681B685B6903F00403042BCAD100231C
:103B180018461037BD4680BD80B584B000AFF86048
:103B2800B9607A6042E0FB681B685B6903F01003C8
:103B3800102B19D1FB681B686FF010025A61FB68E3
:103B480000221A63FB68202283F83D20FB680022CC
:103B580083F83E20FB681A6CFB681A64FB68002235
:103B680083F83C20012329E0FEF776FC02467B68B7
:103B7800D31ABA689A4202D3BB68002B16D1FB68E5
:103B880000221A63FB68202283F83D20FB6800228C
:103B980083F83E20FB681B6C43F02002FB681A6424
:103BA800FB68002283F83C20012307E0FB681B68C0
:103BB8005B6903F04003402BB5D10023184610374A
:103BC800BD4680BD80B483B000AF78607B681B6859
:103BD8005B6903F48063B3F5806F1BD17B681B6856
:103BE8006FF480625A617B6800221A637B68202226
:103BF80083F83D207B68002283F83E207B681B6C9D
:103C080043F004027B681A647B68002283F83C2036
:103C1800012300E0002318460C37BD465DF8047BFD
:103C28007047000080B586B000AF78607B68002BD5
:103C380001D1012364E27B681B6803F00103002BB8
:103C480075D0A34B9B6803F00C03042B0CD0A04B3E
:103C58009B6803F00C03082B12D19D4B5B6803F49F
:103C68008003B3F5800F0BD1994B1B6803F4003325
:103C7800002B5BD07B685B68002B57D101233FE2A8
:103C88007B685B68B3F5803F06D1914B1B68904A0F
:103C980043F4803313601DE07B685B68B3F5A02FA5
:103CA8000CD18B4B1B688A4A43F480231360884BE2
:103CB8001B68874A43F4803313600BE0844B1B680E
:103CC800834A23F480331360814B1B68804A23F4B2
:103CD800802313607B685B68002B13D0FEF7BCFB66
:103CE800386108E0FEF7B8FB02463B69D31A642B3B
:103CF80001D9032304E2764B1B6803F40033002B3D
:103D0800F0D014E0FEF7A8FB386108E0FEF7A4FB4A
:103D180002463B69D31A642B01D90323F0E16C4BAB
:103D28001B6803F40033002BF0D100E000BF7B6870
:103D38001B6803F00203002B63D0654B9B6803F0FC
:103D48000C03002B0BD0624B9B6803F00C03082B71
:103D58001CD15F4B5B6803F48003002B16D15C4BCE
:103D68001B6803F00203002B05D07B68DB68012B7E
:103D780001D00123C4E1564B1B6823F0F8027B688D
:103D88001B69DB00524913430B603AE07B68DB6830
:103D9800002B20D04F4B01221A60FEF75DFB3861E3
:103DA80008E0FEF759FB02463B69D31A022B01D9FA
:103DB8000323A5E1464B1B6803F00203002BF0D058
:103DC800434B1B6823F0F8027B681B69DB00404902
:103DD80013430B6015E03F4B00221A60FEF73CFBD3
:103DE800386108E0FEF738FB02463B69D31A022B1C
:103DF80001D9032384E1364B1B6803F00203002B2F
:103E0800F0D17B681B6803F00803002B30D07B6877
:103E18005B69002B16D0304B01221A60FEF71CFBA1
:103E2800386108E0FEF718FB02463B69D31A022BFB
:103E380001D9032364E1264B5B6F03F00203002BD7
:103E4800F0D015E0244B00221A60FEF705FB38611C
:103E580008E0FEF701FB02463B69D31A022B01D9A1
:103E680003234DE11A4B5B6F03F00203002BF0D1E3
:103E78007B681B6803F00403002B00F0A08000237C
:103E8800FB75134B1B6C03F08053002B0FD10023E1
:103E9800BB600F4B1B6C0E4A43F0805313640C4BF2
:103EA8001B6C03F08053BB60BB680123FB750B4B95
:103EB8001B6803F48073002B21D1084B1B68074A49
:103EC80043F480731360FEF7C7FA386111E000BF4E
:103ED8000038024000004742800E47420070004010
:103EE800FEF7BAFA02463B69D31A022B01D903231B
:103EF80006E1854B1B6803F48073002BF0D07B68C8
:103F08009B68012B06D1814B1B6F804A43F001034C
:103F180013671CE07B689B68052B0CD17B4B1B6FE0
:103F28007A4A43F004031367784B1B6F774A43F0D0
:103F3800010313670BE0754B1B6F744A23F00103F1
:103F48001367724B1B6F714A23F0040313677B6876
:103F58009B68002B15D0FEF77FFA38610AE0FEF760
:103F68007BFA02463B69D31A41F28832934201D95F
:103F78000323C5E0654B1B6F03F00203002BEED053
:103F880014E0FEF769FA38610AE0FEF765FA0246BE
:103F98003B69D31A41F28832934201D90323AFE037
:103FA8005A4B1B6F03F00203002BEED1FB7D012B54
:103FB80005D1564B1B6C554A23F0805313647B681C
:103FC8009B69002B00F09B80504B9B6803F00C030F
:103FD800082B5CD07B689B69022B41D14C4B00229B
:103FE8001A60FEF739FA386108E0FEF735FA02463A
:103FF8003B69D31A022B01D9032381E0434B1B6889
:1040080003F00073002BF0D17B68DA697B681B6AC8
:104018001A437B685B6A9B011A437B689B6A5B084F
:10402800013B1B041A437B68DB6A1B0637491343B1
:104038004B60374B01221A60FEF70EFA386108E030
:10404800FEF70AFA02463B69D31A022B01D9032369
:1040580056E02E4B1B6803F00073002BF0D04EE0A7
:104068002B4B00221A60FEF7F7F9386108E0FEF7DB
:10407800F3F902463B69D31A022B01D903233FE027
:10408800224B1B6803F00073002BF0D137E07B68EC
:104098009B69012B01D1012332E01C4B5B68FB605B
:1040A8007B689B69012B28D0FB6803F480027B683E
:1040B800DB699A4221D1FB6803F03F027B681B6AE7
:1040C8009A421AD1FA6847F6C07313407A68526A5E
:1040D8009201934211D1FB6803F440327B689B6ADA
:1040E8005B08013B1B049A4207D1FB6803F070622E
:1040F8007B68DB6A1B069A4201D0012300E000239B
:1041080018461837BD4680BD007000400038024090
:104118006000474280B584B000AF786039607B6842
:10412800002B01D10123CCE0684B1B6803F0070387
:104138003A689A420CD9654B3A68D2B21A70634B06
:104148001B6803F007033A689A4201D00123B8E0DC
:104158007B681B6803F00203002B20D07B681B6878
:1041680003F00403002B05D0594B9B68584A43F4CD
:10417800E05393607B681B6803F00803002B05D0AD
:10418800534B9B68524A43F460439360504B9B687F
:1041980023F0F0027B689B684D4913438B607B6872
:1041A8001B6803F00103002B44D07B685B68012B7C
:1041B80007D1474B1B6803F40033002B19D10123A7
:1041C8007FE07B685B68022B03D07B685B68032B0E
:1041D80007D13F4B1B6803F00073002B09D1012363
:1041E8006FE03B4B1B6803F00203002B01D1012356
:1041F80067E0374B9B6823F003027B685B683449B0
:1042080013438B60FEF728F9F8600AE0FEF724F9FB
:104218000246FB68D31A41F28832934201D903233C
:104228004FE02B4B9B6803F00C027B685B689B009C
:104238009A42EBD1254B1B6803F007033A689A4270
:104248000CD2224B3A68D2B21A70204B1B6803F08A
:1042580007033A689A4201D0012332E07B681B6861
:1042680003F00403002B08D0194B9B6823F4E05299
:104278007B68DB68164913438B607B681B6803F017
:104288000803002B09D0124B9B6823F460427B681B
:104298001B69DB000E4913438B6000F021F80246CE
:1042A8000B4B9B681B0903F00F030A49CB5C22FAEE
:1042B80003F3094A1360094B1B681846FEF788F890
:1042C800002318461037BD4680BD00BF003C0240A1
:1042D800003802402C8900080C0000201000002043
:1042E8002DE9B04384B000AF00237B600023FB605E
:1042F80000233B600023BB60674B9B6803F00C0303
:10430800082B0DD0082B00F2BD80002B02D0042B07
:1043180003D0B7E0614BBB60B7E0614BBB60B4E072
:104328005D4B5B6803F03F037B605B4B5B6803F4AA
:104338008003002B4DD0584B5B689B091A464FF001
:10434800000340F2FF104FF0000102EA000803EA00
:104358000109404649464FF000024FF000034B0167
:1043680043EAD063420110461946B0EB080061EBFE
:1043780009014FF000024FF000038B0143EA9063FC
:104388008201121A63EB01034FF000004FF00001A5
:10439800D90041EA5271D00002460B4612EB0802DE
:1043A80043EB09034FF000004FF00001590241EAC6
:1043B800D251500202460B46104619467B681A46EF
:1043C8004FF00003FBF7FCFE02460B461346FB606A
:1043D8004AE0314B5B689B091A464FF0000340F2F4
:1043E800FF104FF0000102EA000403EA010520462D
:1043F80029464FF000024FF000034B0143EAD06317
:10440800420110461946001B61EB05014FF00002FE
:104418004FF000038B0143EA90638201121A63EBA9
:1044280001034FF000004FF00001D90041EA52713A
:10443800D00002460B46121945EB03034FF000006B
:104448004FF00001990241EA9251900202460B4650
:10445800104619467B681A464FF00003FBF7B0FE7A
:1044680002460B461346FB600B4B5B681B0C03F0C4
:10447800030301335B003B60FA683B68B2FBF3F36C
:10448800BB6002E0054BBB6000BFBB681846103735
:10449800BD46BDE8B08300BF003802400024F400E8
:1044A80000127A0080B400AF034B1B681846BD4663
:1044B8005DF8047B704700BF0C00002080B500AF9A
:1044C800FFF7F0FF0246054B9B689B0A03F00703C2
:1044D8000349CB5C22FA03F3184680BD003802403A
:1044E8003C89000880B582B000AF78607B68002BFB
:1044F80001D101237BE07B685B6A002B08D17B68D4
:104508005B68B3F5827F09D07B680022DA6105E039
:104518007B6800221A617B6800225A617B6800224E
:104528009A627B6893F85130DBB2002B06D17B6826
:10453800002283F850207868FDF7B6FD7B680222D8
:1045480083F851207B681B681A687B681B6822F017
:1045580040021A607B685B6803F482727B689B6820
:1045680003F404431A437B68DB6803F400631A43CB
:104578007B681B6903F002031A437B685B6903F0DD
:1045880001031A437B689B6903F400731A437B6831
:10459800DB6903F038031A437B681B6A03F0800366
:1045A80042EA03017B689B6A03F400527B681B683C
:1045B8000A431A607B689B691B0C03F004017B6843
:1045C8005B6A03F010027B681B680A435A607B68C9
:1045D8001B68DA697B681B6822F40062DA617B6811
:1045E80000225A657B68012283F85120002318466F
:1045F8000837BD4680BD80B588B002AFF860B960A5
:104608003B601346FB800023FB75FB685B68B3F5D2
:10461800827F12D1FB689B68002B0ED1FB680422B5
:1046280083F85120FA883B6800931346BA68B96842
:10463800F86800F0F1F80346EAE0FB6893F85030B8
:10464800012B01D10223E3E0FB68012283F850200B
:10465800FDF702FF3861FB6893F85130DBB2012B9C
:1046680002D00223FB75CAE0BB68002B02D0FB888E
:10467800002B02D10123FB75C1E0FB68042283F8FB
:104688005120FB6800225A65FB68BA689A63FB6888
:10469800FA889A87FB68FA88DA87FB6800221A6327
:1046A800FB6800229A86FB680022DA86FB680022F3
:1046B8001A64FB6800225A64FB689B68B3F5004FD4
:1046C8000FD1FB681B681A68FB681B6822F0400260
:1046D8001A60FB681B681A68FB681B6822F4804232
:1046E8001A60FB681B681B6803F04003402B07D067
:1046F800FB681B681A68FB681B6842F040021A6076
:10470800FB68DB68002B62D12EE0FB681B689B68A6
:1047180003F00103012B15D1FB681B6803F10C02A0
:10472800FB689B6B1278D2B21A70FB689B6B5A1CA1
:10473800FB689A63FB68DB8F9BB2013B9AB2FB680C
:10474800DA8711E0FDF788FE02463B69D31A3A681A
:104758009A4203D83B68B3F1FF3F02D13B68002B74
:1047680002D10323FB754AE0FB68DB8F9BB2002B69
:10477800CBD131E0FB681B689B6803F00103012B78
:1047880013D1FB681B68DA68FB689B6B92B21A80CE
:10479800FB689B6B9A1CFB689A63FB68DB8F9BB278
:1047A800013B9AB2FB68DA8711E0FDF755FE024635
:1047B8003B69D31A3A689A4203D83B68B3F1FF3F82
:1047C80002D13B68002B02D10323FB7517E0FB687D
:1047D800DB8F9BB2002BCDD13A693968F86800F0BD
:1047E80045FA0346002B02D0FB6820225A65FB6875
:1047F8005B6D002B02D00123FB7500E000BFFB6856
:10480800012283F85120FB68002283F85020FB7DA9
:1048180018461837BD4680BD80B58CB000AFF8602B
:10482800B9607A607B800123FB62002387F82B3014
:10483800FB6893F85030012B01D102238AE1FB6811
:10484800012283F85020FDF707FE7862FB6893F891
:10485800513087F82330FB685B68FB617B887B837A
:1048680097F82330012B0FD0FB69B3F5827F07D16E
:10487800FB689B68002B03D197F82330042B03D0E7
:10488800022387F82B305BE1BB68002B05D07B68DF
:10489800002B02D07B88002B03D1012387F82B3013
:1048A8004EE1FB6893F85130DBB2042B03D0FB6870
:1048B800052283F85120FB6800225A65FB687A6854
:1048C8009A63FB687A88DA87FB687A889A87FB6834
:1048D800BA681A63FB687A88DA86FB687A889A86E7
:1048E800FB6800221A64FB6800225A64FB681B6894
:1048F8001B6803F04003402B07D0FB681B681A684D
:10490800FB681B6842F040021A60FB68DB68B3F57D
:10491800006F78D1FB685B68002B02D07B8B012B82
:1049280066D1FB681B6B1A88FB681B68DA60FB683A
:104938001B6B9A1CFB681A63FB68DB8E9BB2013BFE
:104948009AB2FB68DA8653E0FB681B689B6803F041
:104958000203022B1BD1FB68DB8E9BB2002B16D007
:10496800FB6A012B13D1FB681B6B1A88FB681B6859
:10497800DA60FB681B6B9A1CFB681A63FB68DB8EAA
:104988009BB2013B9AB2FB68DA860023FB62FB68A4
:104998001B689B6803F00103012B19D1FB68DB8FAF
:1049A8009BB2002B14D0FB681B68DA68FB689B6B12
:1049B80092B21A80FB689B6B9A1CFB689A63FB682F
:1049C800DB8F9BB2013B9AB2FB68DA870123FB625B
:1049D800FDF742FD02467B6AD31ABA6B9A4207D8A2
:1049E800BB6BB3F1FF3F03D0032387F82B30A7E05D
:1049F800FB68DB8E9BB2002BA6D1FB68DB8F9BB2DA
:104A0800002BA1D17CE0FB685B68002B02D07B8B7C
:104A1800012B6BD1FB681A6BFB681B680C3312788F
:104A28001A70FB681B6B5A1CFB681A63FB68DB8EE9
:104A38009BB2013B9AB2FB68DA8657E0FB681B68B9
:104A48009B6803F00203022B1CD1FB68DB8E9BB230
:104A5800002B17D0FB6A012B14D1FB681A6BFB687B
:104A68001B680C3312781A70FB681B6B5A1CFB68A6
:104A78001A63FB68DB8E9BB2013B9AB2FB68DA864D
:104A88000023FB62FB681B689B6803F00103012B92
:104A980019D1FB68DB8F9BB2002B14D0FB681B6815
:104AA800DA68FB689B6BD2B21A70FB689B6B5A1C66
:104AB800FB689A63FB68DB8F9BB2013B9AB2FB6889
:104AC800DA870123FB62FDF7C7FC02467B6AD31A2B
:104AD800BA6B9A4203D8BB6BB3F1FF3F02D1BB6BF1
:104AE800002B03D1032387F82B3029E0FB68DB8EEA
:104AF8009BB2002BA2D1FB68DB8F9BB2002B9DD110
:104B08007A6AB96BF86800F017F90346002B06D0EB
:104B1800012387F82B30FB6820225A6510E0FB68D8
:104B28009B68002B0BD100237B61FB681B68DB684B
:104B38007B61FB681B689B687B617B6900E000BF49
:104B4800FB68012283F85120FB68002283F850207B
:104B580097F82B3018463037BD4680BD80B588B0F1
:104B680000AFF860B9603B601346FB71FDF774FC59
:104B78000246BB6A9B1A3A681344FB61FDF76CFC5A
:104B8800B861394B1B685B011B0DFA6902FB03F323
:104B98007B6154E03B68B3F1FF3F50D0FDF75CFC0C
:104BA8000246BB69D31AFA699A4202D9FB69002BFB
:104BB8003DD1FB681B685A68FB681B6822F0E0025D
:104BC8005A60FB685B68B3F5827F11D1FB689B680C
:104BD800B3F5004F04D0FB689B68B3F5806F07D12D
:104BE800FB681B681A68FB681B6822F040021A60A1
:104BF800FB689B6AB3F5005F0FD1FB681B681A68F6
:104C0800FB681B6822F400521A60FB681B681A686C
:104C1800FB681B6842F400521A60FB68012283F8A3
:104C28005120FB68002283F85020032317E07B699A
:104C3800002B01D10023FB617B69013B7B61FB6891
:104C48001B689A68BB681340BA689A420CBF012374
:104C58000023DBB21A46FB799A429BD100231846FF
:104C68002037BD4680BD00BF0C00002080B586B04F
:104C780002AFF860B9607A60FB685B68B3F5827F61
:104C880011D1FB689B68B3F5004F04D0FB689B68A3
:104C9800B3F5806F07D1FB681B681A68FB681B684F
:104CA80022F040021A60FB685B68B3F5827F2AD164
:104CB800FB689B68B3F5806F12D07B680093BB6874
:104CC80000228021F868FFF749FF0346002B2DD00A
:104CD800FB685B6D43F02002FB685A65032326E0FE
:104CE8007B680093BB6800220121F868FFF736FF54
:104CF8000346002B1AD0FB685B6D43F02002FB686B
:104D08005A65032313E07B680093BB6800220121E6
:104D1800F868FFF723FF0346002B07D0FB685B6D9D
:104D280043F02002FB685A65032300E0002318467D
:104D38001037BD4680BD000080B588B002AFF8606E
:104D4800B9607A601B4B1B681B4AA2FB03235B0DEF
:104D58004FF47A7202FB03F37B61FB685B68B3F57F
:104D6800827F12D17B680093BB6800228021F8689B
:104D7800FFF7F4FE0346002B16D0FB685B6D43F08B
:104D88002002FB685A6503230FE07B69002B0AD0D9
:104D98007B69013B7B61FB681B689B6803F08003B0
:104DA800802BF2D000E000BF002318461837BD461C
:104DB80080BD00BF0C000020819F5E1680B584B0C6
:104DC80000AFF860B9607A60FB68002B01D101235D
:104DD80034E0FB6893F84930DBB2002B06D1FB685E
:104DE800002283F84820F868FDF718FAFB681A686B
:104DF800FB6808331946104600F0A6FCFB681868E3
:104E0800FB689B681A46B96800F0F0FCFB685868B4
:104E1800FB689A68FB681B6B796800F025FDFB68E6
:104E28001B68FA68926853F82210FB681B68FA68D6
:104E3800926841F0010143F8221000231846103708
:104E4800BD4680BD80B582B000AF78607B68002B1E
:104E580001D1012341E07B6893F83D30DBB2002BA0
:104E680006D17B68002283F83C207868FDF764F956
:104E78007B68022283F83D207B681A687B680433CC
:104E88001946104600F096FA7B68012283F84620FE
:104E98007B68012283F83E207B68012283F83F204B
:104EA8007B68012283F840207B68012283F8412037
:104EB8007B68012283F842207B68012283F8432023
:104EC8007B68012283F844207B68012283F845200F
:104ED8007B68012283F83D20002318460837BD4629
:104EE80080BD000080B485B000AF78607B6893F81F
:104EF8003D30DBB2012B01D001234EE07B6802225A
:104F080083F83D207B681B68DA687B681B6842F081
:104F18000102DA607B681B68234A934222D07B68CF
:104F28001B68B3F1804F1DD07B681B681F4A9342F2
:104F380018D07B681B681E4A934213D07B681B6895
:104F48001C4A93420ED07B681B681B4A934209D0C7
:104F58007B681B68194A934204D07B681B68184A0F
:104F6800934211D17B681B689B6803F00703FB60C1
:104F7800FB68062B10D07B681B681A687B681B6867
:104F880042F001021A6007E07B681B681A687B68B8
:104F98001B6842F001021A60002318461437BD4608
:104FA8005DF8047B704700BF00000140000400402A
:104FB80000080040000C004000040140004001408F
:104FC8000018004080B582B000AF78607B681B682D
:104FD8001B6903F00203022B22D17B681B68DB6884
:104FE80003F00203022B1BD17B681B686FF00202DF
:104FF8001A617B6801221A777B681B689B6903F03A
:105008000303002B03D0786800F0B5F905E0786851
:1050180000F0A7F9786800F0B8F97B6800221A77E1
:105028007B681B681B6903F00403042B22D17B688F
:105038001B68DB6803F00403042B1BD17B681B6827
:105048006FF004021A617B6802221A777B681B687A
:105058009B6903F44073002B03D0786800F08BF948
:1050680005E0786800F07DF9786800F08EF97B68D3
:1050780000221A777B681B681B6903F00803082B5A
:1050880022D17B681B68DB6803F00803082B1BD15F
:105098007B681B686FF008021A617B6804221A7724
:1050A8007B681B68DB6903F00303002B03D0786877
:1050B80000F061F905E0786800F053F9786800F0CD
:1050C80064F97B6800221A777B681B681B6903F008
:1050D8001003102B22D17B681B68DB6803F01003D8
:1050E800102B1BD17B681B686FF010021A617B685C
:1050F80008221A777B681B68DB6903F44073002B6E
:1051080003D0786800F037F905E0786800F029F9ED
:10511800786800F03AF97B6800221A777B681B6888
:105128001B6903F00103012B0ED17B681B68DB6848
:1051380003F00103012B07D17B681B686FF00102A4
:105148001A617868FCF716FF7B681B681B6903F017
:105158008003802B0ED17B681B68DB6803F080031B
:10516800802B07D17B681B686FF080021A61786812
:1051780000F0E0FA7B681B681B6903F04003402BD2
:105188000ED17B681B68DB6803F04003402B07D116
:105198007B681B686FF040021A61786800F0FFF8BE
:1051A8007B681B681B6903F02003202B0ED17B68EA
:1051B8001B68DB6803F02003202B07D17B681B6882
:1051C8006FF020021A61786800F0AAFA00BF083769
:1051D800BD4680BD80B584B000AF786039600023DB
:1051E800FB737B6893F83C30012B01D10223B4E0B8
:1051F8007B68012283F83C207B68022283F83D20EB
:105208007B681B689B68BB60BB6823F07703BB6047
:10521800BB6823F47F43BB607B681B68BA689A60ED
:105228003B681B68B3F5005F3ED0B3F5005F00F242
:105238008780B3F5805F00F08680B3F5805F7FD804
:10524800702B1AD0702B7BD8602B50D0602B77D85E
:10525800502B3CD0502B73D8402B58D0402B6FD8B4
:10526800302B64D0302B6BD8202B60D0202B67D804
:10527800002B5CD0102B5AD062E07B6818683B6822
:1052880099683B685A683B68DB6800F0ADF97B6851
:105298001B689B68BB60BB6843F07703BB607B6897
:1052A8001B68BA689A604FE07B6818683B68996821
:1052B8003B685A683B68DB6800F096F97B681B68B6
:1052C8009A687B681B6842F480429A603CE07B687D
:1052D80018683B6859683B68DB681A4600F00AF9A9
:1052E8007B681B685021184600F063F92CE07B6846
:1052F80018683B6859683B68DB681A4600F029F96A
:105308007B681B686021184600F053F91CE07B6835
:1053180018683B6859683B68DB681A4600F0EAF889
:105328007B681B684021184600F043F90CE07B6855
:105338001A683B681B681946104600F03AF903E002
:105348000123FB7300E000BF7B68012283F83D2046
:105358007B68002283F83C20FB7B18461037BD464B
:1053680080BD80B483B000AF786000BF0C37BD4605
:105378005DF8047B704780B483B000AF786000BFED
:105388000C37BD465DF8047B704780B483B000AF2E
:10539800786000BF0C37BD465DF8047B704780B469
:1053A80083B000AF786000BF0C37BD465DF8047B62
:1053B8007047000080B485B000AF786039607B68C2
:1053C8001B68FB607B68404A934213D07B68B3F14B
:1053D800804F0FD07B683D4A93420BD07B683C4A94
:1053E800934207D07B683B4A934203D07B683A4A92
:1053F800934208D1FB6823F07003FB603B685B684D
:10540800FA681343FB607B682F4A93422BD07B6872
:10541800B3F1804F27D07B682C4A934223D07B6816
:105428002B4A93421FD07B682A4A93421BD07B6841
:10543800294A934217D07B68284A934213D07B6845
:10544800274A93420FD07B68264A93420BD07B6849
:10545800254A934207D07B68244A934203D07B684D
:10546800234A934208D1FB6823F44073FB603B68EE
:10547800DB68FA681343FB60FB6823F080023B6833
:105488005B691343FB607B68FA681A603B689A683B
:105498007B68DA623B681A687B689A627B680A4AAA
:1054A800934203D07B680C4A934203D13B681A6944
:1054B8007B681A637B6801225A6100BF1437BD46B6
:1054C8005DF8047B704700BF000001400004004005
:1054D80000080040000C004000040140004001406A
:1054E800004401400048014000180040001C0040F2
:1054F8000020004080B487B000AFF860B9607A60DF
:10550800FB681B6A7B61FB681B6A23F00102FB686E
:105518001A62FB689B693B613B6923F0F0033B61BE
:105528007B681B013A6913433B617B6923F00A03DB
:105538007B617A69BB6813437B61FB683A699A614E
:10554800FB687A691A6200BF1C37BD465DF8047BA8
:10555800704780B487B000AFF860B9607A60FB68C4
:105568001B6A23F01002FB681A62FB689B697B6167
:10557800FB681B6A3B617B6923F470437B617B6832
:105588001B037A6913437B613B6923F0A0033B61EA
:10559800BB681B013A6913433B61FB687A699A61EE
:1055A800FB683A691A6200BF1C37BD465DF8047B88
:1055B800704780B485B000AF786039607B689B68BD
:1055C800FB60FB6823F07003FB603A68FB681343D9
:1055D80043F00703FB607B68FA689A6000BF1437E2
:1055E800BD465DF8047B704780B487B000AFF860B3
:1055F800B9607A603B60FB689B687B617B6923F4D8
:105608007F437B613B681A027B681A43BB6813437C
:105618007A6913437B61FB687A699A6000BF1C371B
:10562800BD465DF8047B704780B485B000AF7860F4
:1056380039607B6893F83C30012B01D102235AE092
:105648007B68012283F83C207B68022283F83D2096
:105658007B681B685B68FB607B681B689B68BB603A
:10566800FB6823F07003FB603B681B68FA68134310
:10567800FB607B681B68FA685A607B681B68214A74
:10568800934222D07B681B68B3F1804F1DD07B68A2
:105698001B681D4A934218D07B681B681B4A9342BB
:1056A80013D07B681B681A4A93420ED07B681B682C
:1056B800184A934209D07B681B68174A934204D062
:1056C8007B681B68154A93420CD1BB6823F08003A2
:1056D800BB603B685B68BA681343BB607B681B6848
:1056E800BA689A607B68012283F83D207B680022B3
:1056F80083F83C20002318461437BD465DF8047B28
:10570800704700BF0000014000040040000800404E
:10571800000C004000040140004001400018004017
:1057280080B483B000AF786000BF0C37BD465DF829
:10573800047B704780B483B000AF786000BF0C373B
:10574800BD465DF8047B704780B485B000AF7860D3
:1057580039600023FB603B681A687B6853F8223085
:10576800FB60FA68204B1340FB603B685A683B6853
:105778009B681A433B68DB681A433B681B691A43FA
:105788003B685B691A433B689B691A433B68DB6962
:105798001A433B681B6A1A433B685B6A1A433B68B7
:1057A8009B6A1A433B68DB6A1A433B68DB6B1A4304
:1057B8003B681B6B1343FA681343FB603B689B68A9
:1057C800082B03D1FB6843F04003FB603B681A6871
:1057D8007B68F96843F82210002318461437BD4641
:1057E8005DF8047B704700BF8000F0FF80B487B08D
:1057F80000AFF860B9607A6000237B617B685A1C4F
:10580800FB6853F822307B617B6903F040437B617E
:10581800BB681A68BB685B681B011A43BB689B6856
:105828001B021A43BB68DB681B041A43BB681B696D
:10583800013B1B051A43BB685B69023B1B061A4305
:10584800BB689B6913437A6913437B617B685A1C65
:10585800FB68796943F82210002318461C37BD46B7
:105868005DF8047B7047000080B487B000AFF86033
:10587800B9607A603B6000237B613B68B3F5804F79
:1058880022D1FB687A6853F822307B617A69154B1C
:1058980013407B61BB681A68BB685B681B011A43CD
:1058A800BB689B681B021A43BB68DB681B041A436E
:1058B800BB689B6913437A6913437B61FB687A6809
:1058C800796943F8221005E0FB687A686FF0704147
:1058D80043F82210002318461C37BD465DF8047BA8
:1058E800704700BF0000F0CF70B50D4D0D4C641B24
:1058F800A4100026A64209D10B4D0C4C00F020F84C
:10590800641BA4100026A64205D170BD55F8043BBF
:1059180098470136EEE755F8043B98470136F2E719
:105928004C8900084C8900084C89000850890008F7
:1059380002440346934200D1704703F8011BF9E77C
:10594800F8B500BFF8BC08BC9E467047F8B500BF64
:08595800F8BC08BC9E46704734
:10596000202000004D4F44453A205649455700003D
:105970004D4F44453A205345540000004D4F444597
:105980003A20414C41524D004F4E00004F464600D8
:105990003A000000443A000044743A004D6F3A0067
:1059A00059723A00414C41524D2100000000000064
:1059B00000000000000000000000000000000008DF
:1059C00008080808080800001818000000486C249F
:1059D0001200000000000000000000000000002491
:1059E00024247F1212127F12121200000000081CE1
:1059F0002A2A0A0C1828282A2A1C08080000002233
:105A0000251515152A585454542200000000000C86
:105A10001212120A76252911916E00000006060462
:105A20000300000000000000000000000040201003
:105A30001008080808080810102040000002040898
:105A400008101010101010080804020000000000D8
:105A500008086B1C1C6B0808000000000000000018
:105A6000080808087F080808080000000000000077
:105A70000000000000000000060604030000000013
:105A800000000000FE000000000000000000000018
:105A9000000000000000000006060000000080403A
:105AA0004020201010080804040202000000001822
:105AB00024424242424242422418000000000008B0
:105AC0000E08080808080808083E00000000003C0E
